:020000040800F2
:1000000000000220E5010008410300084303000846
:1000100045030008470300084903000800000000EA
:100020000000000000000000000000004B0300087A
:100030004D030008000000004F03000851030008B2
:1000400029020008290200082902000829020008E4
:1000500029020008290200082902000829020008D4
:1000600029020008290200082902000829020008C4
:1000700029020008290200082902000829020008B4
:1000800029020008290200082902000829020008A4
:100090002902000829020008290200082902000894
:1000A0002902000829020008290200082902000884
:1000B0002902000829020008290200082902000874
:1000C0002902000829020008290200082902000864
:1000D0002902000829020008290200082902000854
:1000E0002902000829020008290200082902000844
:1000F0002902000829020008290200082902000834
:100100002902000829020008290200082902000823
:100110002902000829020008290200082902000813
:100120002902000829020008290200082902000803
:1001300029020008290200082902000829020008F3
:1001400029020008290200082902000829020008E3
:1001500029020008290200082902000829020008D3
:1001600029020008290200082902000829020008C3
:1001700029020008290200082902000829020008B3
:08018000290200082902000811
:1001880010B5054C237833B9044B13B10448AFF3C9
:1001980000800123237010BD000000200000000033
:1001A80058040008084B10B51BB108480849AFF3BC
:1001B80000800848036803B910BD074B002BFBD02B
:1001C800BDE81040184700BF0000000058040008B0
:1001D800040000200000002000000000002103E0CF
:1001E8000A4B5B584350043109480A4B42189A425B
:1001F800F6D3094A02E0002342F8043B074B9A422F
:10020800F9D300F0AFF800F015F87047780400084B
:100218000000002000000020000000202400002032
:10022800FEE782B00190019B5A1E0192002BFAD181
:1002380002B0704708B50820012100F087F81C4972
:100248001C484FF470430B6001230B7103220023F9
:100258008B714A71CB7100F033F84FF48051154817
:1002680000F066F81448FFF7DCFF4FF4005111481E
:1002780000F05EF81048FFF7D4FF4FF480410D48B6
:1002880000F056F80C48FFF7CCFF4FF4004109483E
:1002980000F04EF80948FFF7C4FF06484FF47041D4
:1002A80000F048F86FF07F40FFF7BBFFD5E700BFCD
:1002B8001C000020000C0240FFFF3F00FFFF7F00F2
:1002C800F0B50E6800220123934003EA060E9E450E
:1002D8002AD1550003230468AB40DB431C4004606B
:1002E8000C79076804FA05FC013C4CEA0707012C65
:1002F800076011D884684F791C4084608468AF40D7
:1003080027438760446824EA0E0444608C79476870
:100318009440A4B23C434460C4682340C360CB7992
:10032800C468AB402343C3600132102ACBD1F0BD6F
:1003380001837047418370477047FEE7FEE7FEE799
:10034800FEE770477047704770470000044B1A6B10
:1003580009B1104301E022EA00001863704700BFAA
:1003680000380240344B1A68002142F001021A603A
:1003780099601A6822F0847222F480321A602F4A37
:100388005A601A6882B022F480221A60D9600091FB
:1003980001911A6842F480321A60274B1A6802F4F5
:1003A80000320192009A01320092019A1AB9009A19
:1003B800B2F5A06FF1D11B6813F4003318BF012305
:1003C8000193019B012B05D01D4B4FF000629A60F1
:1003D80002B07047184B1B491A6C42F080521A64DD
:1003E8000A6842F480420A609A689A609A6842F4FD
:1003F80000429A609A6842F4A0529A60124A5A607F
:100408001A6842F080721A6019680B4A8901FBD594
:100418000E4B40F205611960936823F00303936063
:10042800936843F002039360034B9B6803F00C034B
:10043800082BF9D1C8E700BF00380240103000246B
:1004480000ED00E00070004008544007003C024006
:10045800F8B500BFF8BC08BC9E467047F8B500BFA9
:08046800F8BC08BC9E46704779
:04047000AD010008D2
:0404740089010008F2
:04000005080001E509
:00000001FF
